:020000040800F2
:1000000060400020A90100083B4A0008513E00085A
:10001000394A0008010D000849620008000000008C
:10002000000000000000000000000000B55A0008B9
:10003000270E0008000000003D4A0008B75A0008DB
:10004000C3010008C3010008C3010008C301000880
:10005000C3010008C3010008C3010008C301000870
:10006000C3010008C3010008C3010008C301000860
:10007000C3010008C3010008C3010008C301000850
:10008000C3010008C30100082109000800000000A6
:10009000000000000000000000000000C301000894
:1000A000C30100088D5B0008C3010008C3010008FC
:1000B000995B0008C3010008C3010008C3010008E0
:1000C000C3010008C3010008C3010008C301000800
:1000D000C3010008BD610008C961000800000000FC
:1000E000C3010008C3010008C301000800000000AC
:1000F000000000000000000000000000C301000834
:1001000000000000814D0008C3010008C301000881
:1001100000000000000000000000000000000000DF
:10012000350D0008C3010008C3010008410D000897
:10013000C3010008000000000000000000000000F3
:10014000000000000000000000000000C3010008E3
:10015000C30100084D0D0008C3010008D561000867
:10016000C3010008C30100080000000000000000F7
:10017000000000000000000000000000000000007F
:1001800000000000C30100080000000000000000A3
:10019000C3010008DFF80CD000F02CFB004800473A
:1001A000B16E0008604000200648804706480047BE
:1001B000FEE7FEE7FEE7FEE7FEE7FEE7FEE7FEE717
:1001C000FEE7FEE7715B0008950100082DE9F05F8E
:1001D0000546002092469B468846064681464024B6
:1001E0001BE0284641464746224600F088F9534620
:1001F0005A46C01A914110D311461846224600F0C3
:100200006FF92D1A67EB01084F46224601200021A5
:1002100000F066F917EB00094E41201EA4F101041D
:10022000DFDC484631462A464346BDE8F09F40EAB7
:1002300001039B0703D009E008C9121F08C0042A64
:10024000FAD203E011F8013B00F8013B521EF9D24B
:100250007047D2B201E000F8012B491EFBD2704773
:100260000022F6E710B513460A4604461946FFF782
:10027000F0FF204610BD30B505460020034600E0E3
:100280005B1C934205D2EC5CC85C201A01D1002CA7
:10029000F6D130BD2DE9FE4F81EA030404F000449D
:1002A00021F0004100944FF0000B23F0004350EA8E
:1002B00001045ED052EA03045BD0C3F30A54C1F3D5
:1002C0000A552C44A4F2F3340194A0FB0254C1F368
:1002D000130141F48011C3F3130343F4801301FBB2
:1002E000024400FB034E840A970A44EA815447EA19
:1002F0008357A4FB076802958D0A05FB07854FEA23
:10030000932C04FB0C542705029D4FEA065847EA3C
:100310001637B5EB08056EEB070C870E920E47EA11
:10032000811742EA8312A7FB0201B6EB0B0164EBD3
:1003300000042B0D43EA0C335E1844EB1C50DA46E4
:100340005146E7FB0201C5F313044FEA0B3343EABE
:1003500014534FEA0432019C43EA0603A4F10C044F
:100360000294009CCDE900B400F01FF903B0BDE891
:10037000F08F00200146F9E72DE9F04D81EA0304F2
:1003800004F0004B21F0004514464FF0000A23F022
:10039000004150EA050220D054EA01021DD0C5F305
:1003A0000A570246C5F31303C1F31300C1F30A56FB
:1003B00040F4801543F48013A7EB0608101BD646C3
:1003C00008F2FD3873EB050002D308F1010801E0E3
:1003D00092185B41B8F1000F03DA00200146BDE836
:1003E000F08D00204FF48011064684460EE0171B66
:1003F00073EB050705D3121B63EB050306434CEAB9
:10040000010C49084FEA300092185B4150EA01079D
:10041000EDD152EA030012D082EA040083EA05011A
:10042000084305D0101BAB4106D20122002306E091
:1004300000224FF0004302E06FF0010253101AEB6C
:1004400006004CEB085110EB0A0041EB0B01BDE834
:10045000F04D00F09BB800F0004230F000400AD0B0
:10046000C10D01F56071C0F3160042EA0151C208E6
:1004700040071143704700200146704701F00043D8
:1004800030B421F0004150EA010206D00A0DA2F575
:100490006072C1F31301002A02DC30BC00207047F7
:1004A000440F44EAC104C100E01830BC00EBC25064
:1004B00000F035B830B50B4601460020202201245B
:1004C00009E021FA02F59D4205D303FA02F5491B22
:1004D00004FA02F52844151EA2F10102F1DC30BD38
:1004E000202A04DB203A00FA02F1002070479140F4
:1004F000C2F1200320FA03F3194390407047202AE9
:1005000004DB203A21FA02F00021704721FA02F3BD
:10051000D040C2F12002914008431946704700299B
:10052000A8BF7047401C490008BF20F00100704779
:1005300010B4B0FA80FC00FA0CF050EA010404BFD9
:1005400010BC704749B1CCF1200421FA04F411FA2F
:100550000CF118BF012121430843A3EB0C01CB1D73
:100560004FEA00614FEA102042BF002010BC7047E4
:1005700000EBC35010440029A4BF10BC7047401CBE
:10058000490008BF20F0010010BC704710B5141ED0
:1005900073F1000408DA401C41F1000192185B413C
:1005A0001A4301D120F0010010BD2DE9F04D924613
:1005B0009B4611B1B1FA81F202E0B0FA80F220322A
:1005C0009046FFF78DFF04460F4640EA0A0041EAD5
:1005D0000B0153465A46084313D0114653EA010013
:1005E00019D0C8F140025046FFF789FF05460E4674
:1005F000504659464246FFF773FF084305D0012095
:1006000004E020463946BDE8F08D0020054346EA67
:10061000E0762C4337430A986305E40AA0EB080010
:100620000022FD0A44EA47540A3002D50020014660
:10063000E9E7010510196941DDE90845001969413B
:10064000BDE8F04DA2E72DE9FE4F804681EA0300A8
:10065000C00F0C46009021F0004123F00045B8EB9C
:100660000200A94105D24046214690461C460B4651
:10067000024623F00040104347D0270DC7F30A007D
:10068000C3F30A510290401A019040286BDAC3F379
:10069000130040F4801B0098924620B10023D2EB57
:1006A000030A63EB0B0B01985946C0F14002504618
:1006B000FFF716FF06460D4650465946019A00F0D0
:1006C000ABF810EB08006141002487EA115284EA7C
:1006D000E7731A4340D0009A62B3019A012A4FEAA5
:1006E000075215DC001B61EB02014FF0004202EAE9
:1006F0000752CDE90042001C41F5801132462B46DD
:10070000FFF753FF03B0BDE8F08F40462146F9E7FD
:10071000001B61EB0201001C41F5801300185B41D6
:100720002018A2F5001747EB030140EAD570B6196F
:100730006D4111E06D084FEA360645EAC0754FEA93
:100740000752001B61EB0201001C41F580114908B2
:100750004FEA30000019514132462B4603B0BDE844
:10076000F04FFFF713BF0098012240000023D0EBA9
:10077000020263EBE073009821464FEAE074B8EBA5
:10078000000061EB0401E9E783F000435BE781F0DF
:10079000004158E7C1F30A52C1F3130140F2FF339D
:1007A00041F480119A4202DA00200146704740F27B
:1007B00033439A42A2F2334202DC5242FFF79FBE19
:1007C000FFF78EBE30B5041E71F1000404DB4FF05C
:1007D0000044404264EB0101141E73F1000405DB88
:1007E0001C464FF00043524263EB0403994208BF9A
:1007F000904230BD064C074D06E0E06840F0010332
:1008000094E8070098471034AC42F6D3FFF7C6FCD3
:10081000847B0008A47B0008202A06DBCB17203A43
:1008200041FA02F043EAE07306E041FA02F3D040F5
:10083000C2F12002914008431946704770B58C18E8
:1008400010F8015B15F0070301D110F8013B2A11E4
:1008500006D110F8012B03E010F8016B01F8016BD1
:100860005B1EF9D12B0705D40023521E0DD401F8CD
:10087000013BFAE710F8013BCB1A921C03E013F896
:10088000015B01F8015B521EF9D5A142D8D30020CB
:1008900070BD10B50146886B026C12F0500F05D088
:1008A000026CD20626D500F0B1FB10BD016C41F4FC
:1008B0000071016401688A6812F0405F17D1027EFE
:1008C000AAB9CA6A12F4700F02D08A6852050ED40F
:1008D0004A6822F020024A60016C21F480710164B0
:1008E000016CC90403D4016C41F00101016400F002
:1008F0008BFB10BD806BC26CBDE8104008461047F2
:1009000010B5806B40210164416C41F004014164E9
:1009100000F07CFB10BD10B5806B00F076FB10BDC5
:10092000014800F074BB0000542A00204A494A687C
:1009300022F440324A604A6843681A434A600168B8
:100940004A6822F480724A6001684A68036942EA90
:1009500003224A6001684A6822F040724A600168D6
:100960004A6883681A434A6001688A6822F4006210
:100970008A6001688A68C3681A438A60816A6FF076
:100980007062D14214D001688A6822F070628A6075
:1009900001688A68836A1A438A6001688A6822F05B
:1009A00040528A6001688A68C36A1A438A6009E013
:1009B00001688A6822F070628A6001688A6822F0A1
:1009C00040528A6001688A6822F002028A600168E7
:1009D0008A68037E42EA43028A6090F8201089B157
:1009E00001684A6842F400624A6001684A6822F479
:1009F00060424A6001684B68426A521E43EA4232D2
:100A00004A6004E001684A6822F400624A600168B2
:100A1000CA6A22F47002CA620168CB6A828B521ED3
:100A200043EA0252CA6201688A6822F400728A604C
:100A300001688A6890F8303042EA43228A6001688F
:100A40008A6822F480628A6001688A68406942EAA2
:100A50008020886070470000002301402DE9F143A9
:100A6000B2251F220020002600279DF80030002B11
:100A700008D0012B0DD0022B06D0032B06D0042B5F
:100A800006D006E0082004E0042002E00C2000E08C
:100A900004209DF8011031B1012906D0022906D0A9
:100AA000032906D006E0BF2204E09F2202E05F2275
:100AB00000E03F229DF80210112945D912291AD0D1
:100AC00013291BD014291CD015291DD016291ED07E
:100AD00017291FD0182920D0192921D01A2922D04E
:100AE0001B2923D01C2924D01D2925D01E2926D01E
:100AF000042B27D028E040F0100025E040F0300023
:100B000022E040F020001FE040F060001CE040F0D8
:100B1000700019E040F0500016E040F0400013E093
:100B200040F0C00010E040F0D0000DE040F0900038
:100B30000AE040F0800007E040F0A00004E040F050
:100B4000B00001E040F0E0002F4C4FF04C0C84F876
:100B500000C065704FF04D0984F80290E270D343F5
:100B600023716071C143A1714FF0530884F807806D
:100B700084F808C0657284F80A90E2722373607387
:100B8000A17384F80F8084F810C0D52060746620AB
:100B9000A074E674267567753B20A07584F81780ED
:100BA0001A4E182030701AA005F050FB002505E001
:100BB000615D1BA005F04AFB6D1CADB2307885422B
:100BC000F6D316A005F042FB174B184A31780E48B1
:100BD00003F05AFC0546002113481422134B0488E5
:100BE00007E033F81100B0FBF2F023F81100491CC4
:100BF00089B2A142F5D303F0BBFC0D490120087076
:100C00002846BDE8F883000072390020C8010020A2
:100C10000D0A495220545820646174610D0A000085
:100C20003078253032782C00CA010020A439002009
:100C3000CC0100202DE9F041264D4C202870B22433
:100C40006C704D26AE707B27EF704FF0840C85F8EA
:100C500004C0E02169711F22AA715323EB7128722D
:100C60006C72AE72EF7285F80CC06973AA73EB7385
:100C7000194E1020307019A005F0E8FA002405E0A4
:100C8000295D1AA005F0E2FA641CA4B2307884420F
:100C9000F6D315A005F0DAFA164B174A31780D484D
:100CA00003F0F2FB0020134A13491423128807E0D3
:100CB00031F81040B4FBF3F421F81040401C80B22E
:100CC0009042F5D303F054FC0C4901200870BDE8B4
:100CD000F081000072390020C80100200D0A49523D
:100CE00020545820646174610D0A0000307825306A
:100CF00032782C00CA010020A4390020CC01002049
:100D0000FEE730B50446084600223123A15C484086
:100D10000021050603D583EA4000C0B201E0400689
:100D2000000E491CC9B20829F3D3521CD2B2022AC0
:100D3000ECD330BD014800F02DBB00009C2A002000
:100D4000014800F027BB0000F42B0020014800F010
:100D500021BB0000542C00200168CAB2103A1823AD
:100D6000B2FBF3F2064B9B5CC3656FF30901032AE8
:100D700002D9091D816500E08165806D7047000022
:100D8000547B000810B5014600208A6A8B694FF039
:100D9000C074002B0ED0B3F5005F1AD062B3012AE5
:100DA0002AD0022A28D0032A03D1C96AC90100D552
:100DB000012010BD1AB1012A06D0022AF9D1C96A50
:100DC000C901F6D5012010BDC96AA142FBD101209D
:100DD00010BD52B1012A0AD0022A06D0032AF7D147
:100DE000C96AA142F4D1012010BD012010BDC96A19
:100DF000C901FBD5012010BD012010BD30B504682C
:100E0000256825F480252560046863608368402B8D
:100E100004D0036899600068C26030BD03689A60BE
:100E20000068C16030BD70477047000010B586B0E3
:100E30000446002269460A4801F06AFC08B1FFF73F
:100E4000F3FF002205A9064801F040FC08B1FFF7B6
:100E5000EBFF182269462046FFF7E9F906B010BDFE
:100E6000502B002000487047742D0020024908785C
:100E700000220A70704700002401002000487047DB
:100E8000732E00200249487800224A707047000003
:100E90002401002000487047722F00200249887802
:100EA00000228A7070470000240100207047000073
:100EB00078B50024009490F83C20012A19D0012232
:100EC00080F83C200A680725092A14D90368DE68DF
:100ED0000A3A02EB42029540AE43DE600A788B6824
:100EE0000A3A02EB420293400268D5682B43D36072
:100EF00011E0022078BD03681E6902EB42029540B2
:100F0000AE431E610A788B6802EB4202934002688E
:100F100015692B4313614A681F25072A13D20368FA
:100F20005E6B521E02EB82029540AE435E630A88FE
:100F300093B20A79521E02EB820293400268556B0B
:100F40002B43536328E00D2A13D203681E6BD21F74
:100F500002EB82029540AE431E630A8893B20A797F
:100F6000D21F02EB820293400268156B2B4313637E
:100F700012E00368DE6A0D3A02EB82029540AE434E
:100F8000DE620A8893B20A790D3A02EB820293403C
:100F90000268D56A2B43D362174A184B05689D42F5
:100FA00006D10D68122D03D1556845F480055560B2
:100FB00005689D421BD10B68102B01D0112B16D157
:100FC000536843F400035360096810290FD10C499A
:100FD0000C4A0968B1FBF2F101EB81014900009173
:100FE00002E00099491E009100990029F9D180F88A
:100FF0003C40002078BD000000230140002001405B
:101000007801002040420F0070477047704770B56C
:10101000044620680168C1F340014268C2F34012EF
:1010200000292AD04AB3216CC90603D4216C41F4AB
:1010300000712164816811F0405F17D1217EA9B948
:10104000C16A11F4700F02D0816849050ED441685D
:1010500021F020014160206C20F480702064206C1D
:10106000C00403D4206C40F0010020642046FFF748
:10107000CBFF21686FF01200086020680168C1F39F
:1010800080014268C2F3C01289B382B3216CC906E1
:1010900003D4216C41F400512164816811F4401F94
:1010A0001ED1816B11F4401F02D08168490517D40D
:1010B0004168490514D4816811F0405F10D1217E48
:1010C00071B9416821F080014160206C20F48050AA
:1010D0002064206CC00503D4206C40F00100206423
:1010E0002046FFF7E3FE21686FF00C0008602068DF
:1010F0000168C1F300014268C2F3801271B16AB1A4
:101100000068C0070AD0206C40F48030206420467C
:1011100000F046F821686FF001000860206801685F
:10112000C1F340114268C2F3806200290DD0002A49
:101130000BD0616C41F0020161646FF02005056025
:101140002046FFF763FF2068056070BD70B5044658
:101150000026002C03D0206C002510B107E00120F0
:1011600070BD204600F01EF8656484F83C50206C89
:10117000C00610D4206C20F4885040F00200206497
:101180002046FFF7D3FB6564206C20F0020040F09E
:101190000100206400E0012684F83C50304670BD18
:1011A0007047000070B586B00646142101A8FFF70D
:1011B00057F82149306888423BD100251F48016813
:1011C00041F480710160006800F4807000901B4859
:1011D0001438016841F001010160006800F001006D
:1011E00000900220019003200290039501A9144869
:1011F00000F06CFA144C134820606560A560E5604F
:1012000000152061800060618000A061E5612562B9
:101210006562204600F0A6F908B1FFF705FEB46349
:10122000A66300220621122000F08EFE122000F09C
:101230007DFE06B070BD0000002001404438024031
:1012400000000240106402409C2A0020F8B50446C9
:1012500013460022009294F83C00012807D0012098
:1012600084F83C0020688568ED0702D014E0022075
:10127000F8BD856845F0010585603548354D006845
:10128000B0FBF5F000EB4000009002E00098401E3B
:10129000009000980028F9D120688568ED0754D0A7
:1012A000256C40F20166B54345F4807525644068BD
:1012B000400505D5206C20F4005040F48050206497
:1012C000206CC00404D5606C20F00600606400E06F
:1012D000626484F83C20204EA26B2048D063A26B4D
:1012E0001F481064A26B1F48D06422686FF0220070
:1012F00010602068426842F0806242602068826824
:1013000042F48072826020680A464C30A56B014628
:10131000284600F091F97068C00608D0124920688C
:10132000884212D1816811F0405F0AD00DE0206838
:10133000816811F0405F08D1816841F0804181608F
:1013400003E0816841F0804181600020F8BD000029
:101350007801002040420F0000230140930800085C
:1013600017090008010900080020014090F8351015
:10137000022903D08021416501207047052180F8B2
:1013800035100068016821F00101016000207047FC
:10139000406D70472DE9F84304464FF00009CDF841
:1013A00000906F484FF416510068B0FBF1F7A56D3F
:1013B0002E6894F85C00082202FA00F1314210D045
:1013C0002068016849070CD5016821F0040101601B
:1013D00094F85C0002FA00F1A960606D40F0010031
:1013E000606594F85C104FF0010808FA01F0304293
:1013F00008D021684969090604D5A860606D40F0ED
:101400000200606594F85C1004208840304208D0E7
:1014100021680968890704D5A860606D40F0040060
:10142000606594F85C1010208840304220D021681C
:10143000096809071CD5A8602068016849030CD514
:101440000068000304D4216C91B1204688470FE066
:10145000A16C69B1204688470AE00168C90503D438
:10146000016821F008010160216C09B1204688471C
:1014700094F85C102020884030424CD021680968E4
:10148000C90648D5A86094F8350005280BD0206817
:101490000168490330D50068000328D4616C51B35A
:1014A0002046884737E02068016821F01601016076
:1014B0002068416921F080014161206C08B9A06C6D
:1014C00020B12068016821F00801016094F85C10E7
:1014D0003F208840A86084F8349084F83580216DDE
:1014E00000293BD001B02046BDE8F0430847E16B3E
:1014F00009B1204688470EE00168C90507D4016894
:1015000021F01001016084F8349084F83580E16B9B
:1015100009B120468847606D00281FD0606DC00764
:1015200014D0052084F835002068016821F00101FD
:1015300001600098401C0090B84203D82068006801
:10154000C007F6D184F8349084F83580E16C002926
:1015500004D001B02046BDE8F0430847BDE8F88359
:10156000780100202DE9F041044600F08BF9054692
:101570005CB1002684F83460022084F835002068CD
:10158000016821F0010101600DE00120BDE8F0815A
:1015900000F078F9401B052805D92020606503205C
:1015A00084F83500F2E720680068C007F0D12168B0
:1015B0000A6820480240D4E901031843D4E90335FE
:1015C0002B43184363691843A3691843E36918431D
:1015D000236A18431043626A042A03D1D4E90B2317
:1015E0001A43104308602068406920F00700656ACC
:1015F00029460543012704290DD1A06A0543E06A65
:1016000048B12046FFF7BEFB28B14020606584F852
:1016100035700120BAE7206845612046FFF79CFB42
:1016200094F85C203F2191408160666584F83570B4
:101630000020ABE73F8010F02DE9F0410446002583
:10164000A66D94F8340001280DD0012084F83400F0
:1016500094F835700020012F07D084F8340002255B
:101660002846BDE8F0810220FBE7022784F83570A8
:1016700060652046FFF7C2FB94F85C103F2088406D
:10168000B0602068016841F016010160206C20B153
:101690002068016841F0080101602068016841F09C
:1016A00001010160DCE7000070B5044600F0EAF8D3
:1016B0000546601C02D004480078044400F0E2F8BB
:1016C000401BA042FAD370BD6C0100202DE9F84FF9
:1016D0000022DFF860A14FF003084FF00F090AF174
:1016E000040B012595400B682B40AB4272D14C682E
:1016F000012C05D0022C03D0112C01D0122C10D1BA
:101700008668540008FA04F7BE43CF68A740374301
:1017100087604468AC430D79C5F3001595402543B7
:101720004560C468570008FA07F5AC438E68BE40B0
:101730002643C6604C68022C01D0122C12D1D4086A
:1017400000EB840CDCF820605407E40E09FA04FE78
:1017500026EA0E06D1F810E00EFA04FE4EEA060E56
:10176000CCF820E00468AC430D7905F00305BD40DA
:10177000254305604C68E40056D52F4C256845F498
:1017800080452560246804F4804400942B4C22F0AA
:1017900003052544D5F808789407260F09FA06F4BE
:1017A000A743274CA04201D1002415E0254CA042BC
:1017B00001D1012410E0244CA04201D102240BE00D
:1017C000224CA04201D1032406E0214CA04202D1C8
:1017D000042401E028E00724B4403C43C5F808484D
:1017E000DAF800409C434D68ED0300D51C43CAF86D
:1017F0000040DBF800409C434D68AD0300D51C431E
:10180000CBF800400B4D08352C689C434E68F6021F
:1018100000D51C432C60074D0C352C689C434E684A
:10182000B60200D51C432C60521C102AFFF459AF9D
:10183000BDE8F88F003C01404438024000300140D0
:10184000000002400004024000080240000C024078
:10185000001002400069084201D0012070470020BA
:101860007047426931EA020201D081617047090480
:1018700081617047002A01D081617047090481614C
:101880007047000001488068704700006C0100202C
:1018900070B50446002C04D094F83D00002510B12A
:1018A00006E0012070BD84F83C50204600F0A6FA06
:1018B000242084F83D002068016821F001010160C6
:1018C0002068016841F4004101602068016821F44A
:1018D0000041016000F0C4FC4F4B6168994203D89D
:1018E0004E49884203D304E04D49884201D2012089
:1018F00070BD4C49B0FBF1F12268566826F03F06F6
:101900000E43566062689A4201D8491C07E04FF4C2
:10191000967251434FF47A72B1FBF2F1491C22687E
:10192000166A26F03F06314311626168994210D869
:101930004900401EB0FBF1F2521CC2F30B02042A14
:1019400001D2042022E0B0FBF1F0401CC0F30B00F8
:101950001CE0A268F2B301EBC10303EB0116431EC6
:10196000B3FBF6F35B1C43F480431B0549D092B3F1
:1019700001EBC10202EB0111401EB0FBF1F0401C73
:10198000C0F30B0040F4804040F400402168CA6975
:101990004CF6FF739A431043C861D4E90710014322
:1019A0002068026822F0C00211430160D4E90301FB
:1019B00001432068826848F2FF339A4311438160F3
:1019C000D4E9051001432068C26822F0FF021143E8
:1019D000C16001E00EE016E02068016841F00101FD
:1019E00001602564202084F83D00256384F83E5082
:1019F000002070BD01EB4106431EB3FBF6F35B1CF8
:101A0000B3E70120C2E701EB4101401EB0FBF1F05A
:101A1000401CC0F30B00B7E7A086010080841E00C5
:101A200000093D0040420F002DE9F84F04468A4668
:101A300017469946DDF82880FFF724FF054694F8FD
:101A40003D00202802D00220BDE8F88F1923012292
:101A500095492046009502F01CFB08B10220F3E7EF
:101A600094F83C00012807D0012084F83C0020684D
:101A70000168C90702D005E00220E5E7016841F0EE
:101A8000010101602068016821F4006101602220E9
:101A900084F83D00102084F83E000026266467622A
:101AA000A4F82A90608D20858048E0622B4642464B
:101AB0005146204602F0E4F908B10120C4E7208D28
:101AC00070B1012815D0022821D02068016841F4A6
:101AD000806101602068416980690090744FD8E09E
:101AE0002068416981690091016841F400710160D9
:101AF000F4E72068016821F4806101602068416991
:101B000081690091016841F400710160E6E7206895
:101B1000016821F4806101602068016841F400617E
:101B200001602068416980690090D7E703287DD86B
:101B300001280BD002281FD04346002239462046F8
:101B4000009502F0A6FAE8B301207DE72A46414657
:101B5000204602F02FFB08B1012075E720680069DC
:101B6000616A0870606A401C6062208D401E20859A
:101B7000608D401E60858CE0434600223946204639
:101B8000009502F086FA08B101205DE7206801683F
:101B900041F40071016020680069616A0870606A40
:101BA000401C6062218D491E2185618D491E618521
:101BB000216809690170606A401C6062208D401EC6
:101BC000208500E003E0608D401E608561E02068B4
:101BD000016821F48061016020680069616A087011
:101BE000606A401C6062208D401E2085608D401E12
:101BF00060854346002239462046009502F049FAA6
:101C000008B1012020E72068016841F400710160FB
:101C100020680069616A0870606A401C6062218DFA
:101C2000491E2185618D491E618500E00CE0216817
:101C300009690170606A401C6062208D401E208529
:101C4000608D401E608524E02A464146204602F011
:101C5000B1FA08B10120F7E620680069616A0870EE
:101C6000606A401C6062218D491E2185618D491E7C
:101C7000618521684A69D24352070AD40969017013
:101C8000606A401C6062208D401E2085608D401E71
:101C90006085208D00287FF449AF20203C3460709F
:101CA000A67026700020CFE6020010000000FFFFA3
:101CB000040001002DE9F84F04468A46154699466E
:101CC000DDF82880FFF7DEFD064694F83D00202869
:101CD00002D00220BDE8F88F192301224549204691
:101CE000009602F0D6F908B10220F3E794F83C0020
:101CF000012807D0012084F83C0020680168C9074A
:101D000002D005E00220E5E7016841F00101016031
:101D10002068016821F400610160212084F83D0001
:101D2000102084F83E00002727646562A4F82A90FA
:101D3000608D20853048E062334642465146204659
:101D400002F028F908B10120C4E7206841698069E0
:101D500000903EE032464146204602F061FA48B12A
:101D6000206C042804D12068016841F400710160EE
:101D70000120AFE7606A216800780861656A6D1C20
:101D80006562608D401E6085208D401E80B220857A
:101D900022685169C94349070BD450B128781061B2
:101DA000606A401C6062608D401E6085208D401E10
:101DB000208532464146204602F044F948B1206C65
:101DC000042804D12068016841F4007101600120F9
:101DD00080E7208D0028BDD11F3454F81F0C016806
:101DE00041F4007101602020A077E7776777002039
:101DF00070E70000020010000000FFFF10B586B081
:101E00000446142101A8FEF72BFA174920688842DE
:101E100028D1164C206840F400102060206800F49F
:101E20000010009011481038016841F00201016073
:101E3000006800F002000090C02001901220029083
:101E400001200390032004900420059001A9084874
:101E5000FFF73CFC206840F400102060206800F48C
:101E60000010009006B010BD005400404038024001
:101E70000004024002488168027811448160704782
:101E80006C01002010B50B48016841F4007101603D
:101E9000016841F480610160016841F48071016072
:101EA000032000F071F8002000F006F800F026F89A
:101EB000002010BD003C024070B504460D4D4FF4AB
:101EC0007A712878B1FBF0F00B490968B1FBF0F0AA
:101ED00001F0CEF908B1012070BD102C07D200220C
:101EE0002146501E00F030F86C60002070BD0120CB
:101EF00070BD00006C0100207801002008B50A4880
:101F0000016841F480410160006800F48040009065
:101F10000548001F016841F080510160006800F031
:101F20008050009008BD000044380240002809DBC2
:101F300000F01F02012191404009800000F1E020E3
:101F4000C0F8001170470000F0B40D460D4B1B683F
:101F5000C3F30223C3F10704042C00D90424191D80
:101F6000072901D2002300E0DB1E012606FA04F156
:101F7000491E294099409E40761E16403143F0BCD0
:101F800004F088B90CED00E000F00701054A106884
:101F90004FF6FF03184040EA012003490843106050
:101FA000704700000CED00E00000FA052DE9F84351
:101FB00004464FF0010720684FF00006C10701D129
:101FC00040072DD5DFF82891C9F86860FFF75AFC63
:101FD0008046484D08E0FFF755FCA0EB08000228BA
:101FE00002D90320BDE8F88328680001F3D46068B3
:101FF000217A800140EA01713E4884300160C9F8CD
:102000006870FFF73FFC804607E0FFF73BFCA0EB62
:102010000800022801D90320E4E728680001F4D56C
:102020002078800753D533484030016841F0805113
:102030000160006800F0805000902F4D286840F447
:1020400080702860FFF71EFC804607E0FFF71AFC4F
:10205000A0EB0800022801D90320C3E72868C005C7
:10206000F4D5244D7035286800F44070F0B1A18992
:1020700001F44071814219D0286820F440701F4952
:102080000F600E6028602868C0070FD0FFF7FAFBCA
:10209000074641F2883606E0FFF7F4FBC01BB0426A
:1020A00001D903209EE728688007F5D5E06811492B
:1020B000C0F301220831032A11D0086820F4F81077
:1020C00008602868A189C1F30B01084328602078C3
:1020D000000702D50A49207C0860002082E70A68D0
:1020E000084B22F4F812184002430A60E9E70000A6
:1020F000000047420038024000700040400E474256
:10210000E0114742FFFCFF0F2DE9F04704460D4662
:10211000002C13D0DFF82891D9F80000EFB200F0BE
:102120000F00A8420CD289F80070D9F8000000F026
:102130000F00A84204D00120BDE8F0870120FBE792
:102140002068404E810712D5400703D5306840F41F
:10215000E05030602078000703D5306840F46040DC
:1021600030603068A16820F0F000084330602078CB
:10217000C00731D0334960680839012808D00228E7
:102180000BD0032809D0096889070BD40120D3E7B5
:102190000968890306D40120CEE70968890101D4C2
:1021A0000120C9E7316821F0030101433160FFF7E5
:1021B00069FB804641F2883A07E0FFF763FBA0EB3A
:1021C0000800504501D90320B6E73068616800F087
:1021D0000C00B0EB810FF0D1D9F8000000F00F0037
:1021E000A84209D989F80070D9F8000000F00F0062
:1021F000A84201D001209FE72078400705D530682C
:10220000E16820F4E050084330602078000706D5EC
:102210003068216920F4604040EAC100306000F07D
:102220003FF83168084AC1F30311515CC8400749BF
:10223000086007480068FFF73FFE00207CE70000C9
:10224000003C0240083802405C7B00087801002016
:1022500070010020014800687047000078010020EC
:1022600000B5FFF7F7FF04490968044AC1F382216A
:10227000515CC84000BD0000083802406C7B00087B
:1022800000B5FFF7E7FF04490968044AC1F342318A
:10229000515CC84000BD0000083802406C7B00085B
:1022A00010B51548006810F00C01144823D004291B
:1022B00021D008291FD1104C241F216801F03F02B2
:1022C0002168490208D521680023C1F38811A1FBC8
:1022D0000001FDF77BFF07E021680023C1F38811AF
:1022E000A1FB0001FDF772FF2168C1F30141491C08
:1022F0004900B0FBF1F010BD083802400024F400A2
:102300002DE9F84F0446002C13D02078DFF8AC8379
:10231000C007A8F1040556D008F104000168C1F314
:10232000810101290CD00068C0F38100022803D08C
:102330000DE00120BDE8F88FD8F80000400206D576
:10234000286880033FD5606870BB0120F2E76068B1
:10235000B0F5803F10D0B0F5A02F12D0286820F43F
:1023600080302860286820F4802028606068E0B110
:10237000FFF788FA064614E0286840F480302860A9
:10238000F4E7286840F480202860286840F4803012
:102390002860EBE7FFF776FA801B642801D9032059
:1023A000C8E728688003F5D50DE0FFF76BFA06460D
:1023B00006E0FFF767FA801B642801D90320B9E71C
:1023C00028688003F5D42078BD4F80074FF00009BE
:1023D00048D5BA48001D016811F00C0F08D00068FC
:1023E000C0F38100022813D1D8F8000040020FD4B6
:1023F0002868800704D5E068012801D0012099E70A
:102400002868216920F0F80040EAC100286029E02E
:10241000E068B8B101203860FFF734FA064606E0FC
:10242000FFF730FA801B022801D9032082E72868D1
:102430008007F5D52868216920F0F80040EAC1003E
:1024400028600FE0C7F80090FFF71CFA064606E088
:10245000FFF718FA801B022801D903206AE72868D1
:102460008007F5D42078000729D5DFF850A29548D9
:1024700061690AF1700A89B101210160FFF702FA6E
:10248000064606E0FFF7FEF9801B022801D903206B
:1024900050E7DAF800008007F4D510E0C0F80090AB
:1024A000FFF7F0F9064606E0FFF7ECF9801B02287B
:1024B00001D903203EE7DAF800008007F4D4207841
:1024C00040076ED500267D483C300068C0000AD425
:1024D0007A483C30016841F080510160006800F0AA
:1024E000805000900126DFF8E0B1DBF80000C00565
:1024F00015D4DBF8000040F48070CBF80000FFF743
:10250000C1F9824607E0FFF7BDF9A0EB0A000228F7
:1025100001D903200EE7DBF80000C005F3D5DFF892
:102520009CB1A0680BF16C0B012813D0052818D0C2
:10253000DBF8000020F00100CBF80000DBF8000021
:1025400020F00400CBF80000A06830B3FFF79AF940
:1025500082461DE0DBF8000040F00100CBF80000EF
:10256000F2E7DBF8000040F00400CBF80000DBF8F5
:10257000000040F00100CBF80000E5E7FFF782F92A
:10258000A0EB0A0141F28830814201D90320D1E653
:10259000DBF800008007F1D512E0FFF773F98246FF
:1025A0000AE015E0FFF76EF9A0EB0A0141F288306E
:1025B000814201D90320BDE6DBF800008007F1D499
:1025C000012E05D13D483C30016821F08051016069
:1025D000A069B8B33949091D0968C1F3810102290D
:1025E00047D0022805D0C7F86090FFF74BF90446A2
:1025F0003BE0C7F86090FFF745F9064606E0FFF7B5
:1026000041F9801B022801D9032093E62868800144
:10261000F5D4D4E907010843616AA26A4FF0FF3399
:10262000890103EB520241EA0241084394F82C105D
:1026300040EA0160C8F8000001203866FFF722F97F
:10264000044607E037E0FFF71DF9001B022801D917
:1026500003206FE628688001F5D52CE0FFF712F91A
:10266000001B022801D9032064E628688001F5D404
:1026700021E001281DD0D8F80000E26900F48001B3
:10268000914214D1226A00F03F0191420FD147F6E6
:10269000C071626A0140914209D1A26A00F44031DE
:1026A000914204D1E16A00F07060884203D00120B9
:1026B00040E601203EE600203CE6000004380240EF
:1026C00000004742800E47420070004010B50B46A4
:1026D000006841680D480140080CD870C1F304241B
:1026E0005C7001F03F049C70C1F342311970002A04
:1026F0000AD102F003FBD870587802F0FFFA587044
:10270000987802F0FBFA9870002010BD3FFFFF00A0
:1027100010B50B460168896A596001680969C1F3FF
:102720000E019960006801680E480140C1F3054040
:102730001870C1F306245C7001F07F049C7001F4F2
:102740008001090CD970002A0AD102F0D7FA18705A
:10275000587802F0D3FA5870987802F0CFFA98704F
:10276000002010BD7F7F7F0070B50446002C02D092
:10277000607F10B106E0012070BD00202077204668
:1027800000F04EF8022060772168CA204862216874
:1027900053204862204602F0BAFAFF25042620B1F1
:1027A000206845626677012070BD206881681B4AF9
:1027B000114081602068816862681143D4E9042374
:1027C0001A43114381602168E0680861206801694B
:1027D000228941EA024101612068C16821F080013B
:1027E000C16020688068800608D4204600F024F884
:1027F00020B1206845626677012070BD2068016CB9
:1028000021F4802101642068016CA26911430164F4
:102810002068456201206077002070BDBFFF8FFFF8
:1028200000680349884202D10249012008607047CC
:10283000002800403C0E474270B505462868C16834
:1028400021F0A001C160FFF71DF804464FF47A762D
:1028500006E0FFF717F8001BB04201D9032070BD56
:102860002868C0688006F4D5002070BD704700005D
:1028700070B58AB004460D46032084F83400606CBD
:1028800003281ED0B5F5805F08D0B5F5006F0AD0DB
:1028900085B1A06B40F00060A06316E0A06B40F033
:1028A0008050A06311E0204603F045F8A16B01437E
:1028B000A1630AE0204603F015F8A16B0143A16370
:1028C00003E0A06B40F08050A063A06B012638B1FC
:1028D00021680F48886384F8346001200AB070BD15
:1028E00060680490A0680590E068069007956069AC
:1028F0000890A069099007A807C88DE8070004A9F7
:1029000020680EC902F042FA84F834600020E5E73E
:10291000FF0540002DE9F04104460E46154694F8A7
:102920003400012802D00220BDE8F0810020A0631D
:10293000B54205D2A06B40F00060A0630120F3E730
:10294000E06DA84205D2A06B40F00070A0630120AA
:10295000EAE7032084F8340094F84C00DFF8B080F4
:1029600080064FF001070AD42068C0F83880A06BB9
:1029700040F08060A06384F834700120D4E7002127
:10298000206802F0F9F980010AD52068C0F8388083
:10299000A06B40F40060A06384F834700120C3E7AA
:1029A000606C012801D076026D0203281DD03146EB
:1029B000206802F014FB48B12168C1F83880A16B8F
:1029C0000143A16384F834700120ADE729462068F3
:1029D00002F0ECFA48B12168C1F83880A16B0143DC
:1029E000A16384F8347001209EE7206802F068FA41
:1029F00048B12168C1F83880A16B0143A16384F814
:102A00003470012090E784F8347000208CE70000D7
:102A1000FF05400070470000F0B550F8642F920F9A
:102A20000A700268C2F383624A700268C2F30162EC
:102A30008A700268120CCA700288120A0A7102783F
:102A40004A714268120DCA804268C2F303420A7298
:102A50008288C2F3C0324A728288C2F380328A729C
:102A60008288C2F34032CA728288C2F300320A738B
:102A700000264E7350F8203C643801244FF4007552
:102A8000002B0CD0012B3AD0026847499163816B2F
:102A900041F08051816380F834400120F0BDB0F8EE
:102AA0006820C36E9205120D42EA93720A61C26EEB
:102AB000C2F3C2620A75C26EC2F302624A75C26E86
:102AC000C2F342528A75C26EC2F38242CA75C26EA6
:102AD000C2F3C2320A760B695B1C43650A7E02F0C0
:102AE0000702921C934043650A7A02F00F0704FA2A
:102AF00007F28265520A5343C36505660EE090F8FB
:102B00006820C36E9206920A42EA13420A610A6979
:102B1000521C93024365C3658565056630F86C2FCA
:102B2000C2F3803201F8192F0288C2F3C6124A702C
:102B3000027802F07F028A704268D20FCA7042683F
:102B4000C2F341720A714268C2F382624A714268FA
:102B5000C2F383528A714268C2F34052CA710E7244
:102B60004268C2F300424A728288C2F3C0328A725B
:102B70008288C2F38032CA728288C2F340320A73FA
:102B80008288C2F300324A738288C2F381228A7338
:102B90008288C2F30122CA730079C0F34600087428
:102BA0004C740020F0BD0000FF05400038B504461D
:102BB000002000906946204602F07DFE10B1A16B16
:102BC0000143A1630098C0F3432038BD2DE9F041D3
:102BD0000446256B2068416B090406D5290704D5F6
:102BE0002046BDE8F04102F04BBE416B4FF00008BB
:102BF000C9054FF0010752D5390281632068C16BC6
:102C00004CF23A329143C1632068C16A21F001015C
:102C1000C162280724D505F0020605F020003043E4
:102C200009D0206802F082FA28B1A16B0143A163A8
:102C30002046FFF7EFFE216840F23A50886384F89F
:102C40003470C4F8308005F00100304304D02046D1
:102C500000F06AFABDE8F081204600F066FAF9E774
:102C60002806F7D5A80609D5206802F05FFA28B132
:102C7000A16B0143A1632046FFF7CCFE05F00100E4
:102C800005F002010843E5D12068C16A21F008017E
:102C9000C16284F83470204600F047FADAE7416BED
:102CA000490406D5290704D52046BDE8F04102F0C5
:102CB0006BBE416B40F23A221142CBD0416B890787
:102CC00003D5A16B41F00201A163416B090703D554
:102CD000A16B41F00801A163416B890603D5A16B8B
:102CE00041F02001A163416BC90603D5A16B41F0FE
:102CF0001001A163416B890503D5A16B41F0080167
:102D0000A16340F23A7181632068C16B40F23A32AC
:102D10009143C163206802F009FAA16B0843A063E4
:102D2000280707D584F83470C4F830802046FFF7B0
:102D300071FE8FE728068DD505F0100005F0200103
:102D400008430CD0E16B14480865E06BFEF70EFBFE
:102D5000002884D0E06BBDE8F04102F017BC05F01C
:102D6000010005F0020108430CD0216C0B480865F6
:102D7000206CFEF7FBFA002890D0206CBDE8F041F3
:102D800002F0DBBBC4F8388084F83470C4F83080BB
:102D90002046FFF76BFD5DE78D5500083B550008A9
:102DA00070B50446002C04D094F83400002510B10E
:102DB00005E0012070BD2577204600F04BF8032088
:102DC00084F83400204600F00BF808B1012070BDF3
:102DD000A5632563012084F83400002070BD000045
:102DE00070B58AB0044600252946049505910691E0
:102DF00007910891762009900091CDE901100B46CA
:102E00000A46206801F0C2FF10B101200AB070BD6F
:102E10000F4E3560206801F0CEFF01253560204659
:102E200002F0D8FC30B184F83450A16B0143A163A7
:102E30000120EBE7204602F057FC30B184F8345013
:102E4000A16B0143A1630120E0E70020DEE7000061
:102E5000A08025422DE9F04F87B00546142102A835
:102E6000FDF7FEF94E49286888427DD14D4800683B
:102E70004C4940F4006008600846006800F40060B7
:102E80000190484814380068464940F0040014395D
:102E900008600846006800F00400019008460068D9
:102EA00040F0080008600846006800F00800019043
:102EB0004FF4F85002900220039000200490032663
:102EC00005960C24069402A93748FEF7FFFB042759
:102ED000029702200390002004900596069402A910
:102EE0003248FEF7F3FB334C3148206078066060CF
:102EF0000020A060E060380220614FF48058C4F8E0
:102F000014800001A0612020E0614FF44039C4F832
:102F100020906762A6624FF4000AC4F82CA04FF418
:102F2000001BC4F830B02046FEF71CFB08B1FDF7CB
:102F30007BFF2C64A5631E481E4C48306034206023
:102F40004FF0006060604020A0600020E0604FF41F
:102F500080602061C4F814800001A0612020E0613D
:102F6000C4F82090676200E017E0A662C4F82CA0C5
:102F7000C4F830B02046FEF7F5FA08B1FDF754FF6B
:102F8000EC63A563002203213120FEF7DDFF312031
:102F9000FEF7CCFF08A003F059F907B0BDE8F08FA9
:102FA000002C01404438024000080240000C02405E
:102FB00058640240F42B0020496E697420746865DF
:102FC000206C6F77206C6576656C20686172647721
:102FD0006172652066696E6973680D0A0000000001
:102FE0002DE9F04786B004460F4615461E46002FD1
:102FF00007D094F83400012809D0022006B0BDE8BB
:10300000F087A06B40F00060A0630120F6E74FF06E
:103010000008C4F83880E16DA819884205D9A06B72
:1030200040F00070A0630120E8E7032084F834003A
:103030002068C0F82C802068C16B40F22A3211430E
:10304000C163216C3448C863216C3448C864206C67
:10305000C0F8508021684FEA462A4FEA9A0380312F
:103060003A46206CFEF7E8FADFF8B490012778B111
:103070002068C16B21F49571C1632068C0F8389055
:10308000A06B40F08040A06384F834700120B5E765
:1030900024480760606C012800D06D024FF4007175
:1030A000206801F0DBFE48B12168C1F83890A16BBF
:1030B0000143A16384F8347001209FE74FF0FF3093
:1030C0000090CDF804A09020029002200390CDF84B
:1030D000108005976946206801F035FE012E06D95B
:1030E000822020632946206801F02EFF05E0812020
:1030F00020632946206801F040FF58B12168C1F8DB
:103100003890A16B0143A16384F83470C4F8308017
:10311000012073E7002071E7F95400089554000876
:10312000FF0540008C852542704770472DE9FF4F11
:1031300087B0044615461E460898002807D094F824
:103140003400012809D002200BB0BDE8F08FA06B3D
:1031500040F00060A0630120F6E70027A763E16D5F
:10316000A819884205D9A06B40F00070A063012027
:10317000EAE7032084F834002068C7622068C16B46
:1031800040F21A2A41EA0A01C163E16B3448C8637C
:10319000E16B3448C864E06B0765606C012800D0BF
:1031A0006D024FF40071206801F058FEDFF8B8900E
:1031B0004FF0010848B12168C1F83890A16B014374
:1031C000A16384F834800120BEE74FF0900B012EFC
:1031D00006D9A02020632946206801F0C1FF05E040
:1031E000C4F830B02946206801F0D3FF50B12168FF
:1031F000C1F83890A16B0143A16384F83480276340
:103200000120A1E71948C0F8008022687502AB08C8
:103210008032E06B0899FEF70FFA80B12068C16B2D
:1032200021EA0A01C1632068C0F83890A06B40F021
:103230008040A06384F834802763012084E74FF046
:10324000FF3001900295CDF80CB004970597CDF8AA
:10325000188001A9206801F076FD002074E70000C5
:103260007F55000895540008FF0540008C852542D5
:1032700010B5401EB0F1807F01D3012010BD4FF08A
:10328000E02460610F21601703F004F80020A061C2
:1032900007202061002010BD7047704770B590F87E
:1032A0003C20012A2BD0012680F83C60022280F8C5
:1032B0003D2002685368956823F070040B6823432F
:1032C0005360104B02689A420ED0B2F1804F0BD07F
:1032D0000D4B9A4208D00D4B9A4205D00C4B9A42A6
:1032E00002D00C4B9A4204D125F08003496819435F
:1032F00091603C30467000210170002070BD0220BA
:1033000070BD0000000001400004004000080040C3
:10331000000C00400040014010B50446002C03D0D2
:1033200094F83D0010B107E0012010BD002084F8A2
:103330003C00204600F00CF8022084F83D00211DDE
:10334000206802F02FFC012084F83D00002010BD11
:1033500008B500681C49B0F1804F0BD01B4A904261
:103360001AD1086840F008000860086800F00800FA
:10337000009008BD086840F001000860086800F08F
:1033800001000090002202211C20FEF7DDFDBDE8B7
:1033900008401C20FEF7CABD0D498842E9D10A4801
:1033A000001D016841F400310160006800F4003044
:1033B0000090002207211920FEF7C6FDBDE8084055
:1033C0001920FEF7B3BD000040380240000C004059
:1033D000004401400168CA6842F00102CA60006806
:1033E000816801F00701062903D0016841F001015D
:1033F00001600020704770B5044694F83C00012835
:1034000017D0012584F83C50022084F83D00206844
:10341000826822F0770222F47F4282600868502896
:1034200031D00DDC20284DD005DCB0B310284ED1B2
:1034300048E0022070BD302844D0402847D137E012
:1034400060282BD0702806D0B0F5805F3FD0B0F553
:10345000005F3CD10BE0CB68D1E90121206802F08C
:10346000FAFB2068816841F0770181602FE0CB682A
:10347000D1E90121206802F0EEFB2068816841F467
:103480008041816023E0CA684968206802F0ACFC92
:103490005021206802F0E9FB19E013E0CA6849688E
:1034A000206802F0B2FC6021206802F0DEFB0EE032
:1034B000CA684968206802F097FC4021206802F041
:1034C000D4FB04E022680146104602F0CEFB3C34F7
:1034D00065700020207070BD704770B5044620688C
:1034E00001694FF00005C943890716D4C168C94373
:1034F000890712D4E91E01610120207720688069C4
:10350000800703D02046FFF7E7FF05E0204600F0E4
:10351000C3F8204600F04BF9257720680169C943BC
:10352000490718D4C168C943490714D46FF004018E
:103530000161022020772068806910F4407F03D069
:103540002046FFF7C9FF05E0204600F0A5F8204619
:1035500000F02DF9257720680169C943090717D4C0
:10356000C168C943090713D46FF008010161042041
:1035700020772068C069800703D02046FFF7ACFFA2
:1035800005E0204600F088F8204600F010F9257785
:1035900020680169C943C90618D4C168C943C9066E
:1035A00014D46FF010010161082020772068C069F1
:1035B00010F4407F03D02046FFF78EFF05E0204641
:1035C00000F06AF8204600F0F2F8257720680169DB
:1035D000C943C90708D1C168C943C90704D1891EB5
:1035E0000161204600F02AF920680169C9430906F3
:1035F00009D4C168C943090605D46FF0800101618F
:103600002046FFF749FE20680169C943490609D4ED
:10361000C168C943490605D46FF0400101612046E5
:1036200000F0B2F920680169C94389060BD4C1686A
:10363000C943890607D46FF0200101612046BDE827
:103640007040FFF72ABE70BD10B586B00446142145
:1036500001A8FCF705FE0D482168814214D1002124
:103660000B48026842F001020260006800F00100AD
:103670000090012001900220029003910491059096
:1036800001A90448FEF722F806B010BD000C004066
:103690003038024000000240704770B504460D46C5
:1036A00094F83C0001280DD0012684F83C600220EB
:1036B00084F83D0042B1042A1AD0082A2DD00C2AE1
:1036C00053D13EE0022070BD2946206802F0D6FAB0
:1036D0002068816941F0080181612068816921F0D9
:1036E00004018161206881692A69114381613CE09C
:1036F0002946206802F0F2FA2068816941F40061ED
:1037000081612068816921F480618161206881691B
:103710002A6941EA0221816127E02946206802F0F6
:103720000FFB2068C16941F00801C1612068C169CF
:1037300021F00401C1612068C1692A691143C16196
:1037400013E02946206802F02BFB2068C16941F490
:103750000061C1612068C16921F48061C161206894
:10376000C1692A6941EA0221C1613C3466700020C6
:10377000207070BD10B50446002C03D094F83D00B5
:1037800010B107E0012010BD002084F83C00204665
:1037900000F00CF8022084F83D00211D206802F0A2
:1037A00001FA012084F83D00002010BD70477047E9
:1037B00010B504460122206802F040FA0949206849
:1037C000884203D1416C41F4004141642068816822
:1037D00001F00701062903D0016841F001010160F1
:1037E000002010BD0000014010B5044600222068F2
:1037F00002F024FA104841F211122168931081421C
:1038000009D1086A104206D1086A184203D1486CEF
:1038100020F4004048642068016A114206D1016A20
:10382000194203D1016821F001010160012084F8EF
:103830003D00002010BD0000000001402DE9F041D6
:10384000074600243868444D0126B0F1804F0CD162
:1038500000F096FE20214148FDF7FCFF08B1AE7054
:1038600000E0AC70A87800F021FD3D483968814245
:1038700067D13C490868401C08603B480168491C06
:1038800001606868401C686038490A68521C0A6018
:1038900037490A68521C0A6036490A68521C0A6095
:1038A000354A0223117B012909D19168491C916095
:1038B0005768B94203D954701473946013702F4A37
:1038C000117B012909D19168491C91605768B9425F
:1038D00003D95470147394601370294A117B012921
:1038E00009D19168491C91605768B94203D9547055
:1038F000147394601370092823D96C602021214827
:10390000FDF7A8FF1449C822083178B10C70487837
:10391000401CC0B24870C82800D94A7008780728EF
:1039200011D92C706878012809D009E00878401C6A
:10393000C0B208704C70C828F0D90A70EEE7CE709B
:103940006C70BDE8F08148780728FAD92E70687845
:1039500000B98E706E70F4E718010020000002407C
:1039600000440140000000200C0000201001002055
:1039700014010020100000202C0100203C01002038
:103980004C010020000402407047704770B50446A7
:1039900022681068D168526900F00F03002B08D12B
:1039A000850606D58D0604D52046BDE8704002F098
:1039B00061BA002B60D002F0010301F490751D4341
:1039C0005AD0C50705D0CD0503D5E56B45F00105F7
:1039D000E563450705D5D50703D0E56B45F002053E
:1039E000E563850705D5D20703D0E26B42F00402F8
:1039F000E263020707D501F020021A4303D0E26B0D
:103A000042F00802E263E26B002A2AD0800604D565
:103A1000880602D5204602F02DFA20684069C0F3DE
:103A20008010E16B090700D400B3204602F007FACA
:103A300020684169490615D5416921F0400141617D
:103A4000606B58B115490165606BFDF78FFC00286C
:103A500007D0606B016DBDE8704008472046FFF756
:103A600094FF70BD2046FFF790FF70BD2046FFF722
:103A70008CFF0020E06370BD020606D50A0604D55F
:103A80002046BDE8704002F033BB4006F3D548063F
:103A9000F1D52046BDE8704002F0DFB92F5E000886
:103AA00070B50446002C04D094F83900002510B1FC
:103AB00006E0012070BD84F83850204600F022F85E
:103AC000242084F839002068C16821F40051C160C5
:103AD000204602F01DFA2068016921F4904101613D
:103AE0002068416921F02A0141612068C16841F4E0
:103AF0000051C160E563202084F8390084F83A0061
:103B0000002070BDF0B587B00446142102A8FCF770
:103B1000A7FB404ADFF8F8C0216800233D4C143A67
:103B20000225032607273C48614522D1216841F040
:103B300010012160216801F010010191116841F02C
:103B400001011160116801F00101019171020291FE
:103B5000039504930596069702A9FDF7B7FD002289
:103B600005212520FEF7F0F92520FEF7DFF907B043
:103B7000F0BDDFF8A8C0614523D12649091F0C68B4
:103B800044F400340C60096801F4003101911168BB
:103B900041F001011160116801F0010101910C2156
:103BA0000291039504930596069702A9FDF78EFDF1
:103BB000002207212620FEF7C7F92620FEF7B6F9D6
:103BC000D5E717488142D2D1206840F0200020601C
:103BD000206800F020000190106840F004001060A0
:103BE000106800F004000190C02002900395049337
:103BF00005960820069002A90A48FDF767FD0022F5
:103C000006214720FEF7A0F94720FEF78FF9AEE71F
:103C100000100140443802400000024000440040CF
:103C2000001401400008024090F83A30202B01D0E7
:103C300002207047F9B1F2B190F83830012B1CD056
:103C400081628285C2850021C163222280F83A20E8
:103C500080F838100168CA6842F48072CA6001684E
:103C60004A6942F001024A610068C16841F02001DE
:103C7000C16000207047012070470220704700009B
:103C80002DE9F041044636492068364E03270025C9
:103C90004FF00108884218D1F07803F07FFE06F15A
:103CA00008014878012810D18D6081F80C8081F8D6
:103CB00000802D4B3078F2781A54401CC0B230701E
:103CC000FF2802D34D700D730F7026490122C91CC5
:103CD0002648FFF7A9FF26492068884216D12149C6
:103CE00018314878012811D18D6081F80C8081F855
:103CF00000801D4B7078FF3332791A54401CC0B2DB
:103D00007070FF2802D34D700D730F70154917485E
:103D10000122091D4030FFF787FF164920688842BD
:103D200015D1104928314878012810D18D6081F8CB
:103D30000C8081F80080104BB07872791A54401CC6
:103D4000C0B2B070FF2802D34D700D730F70BDE884
:103D5000F041044905480122491D8030FFF764BF46
:103D60000010014024010020742D00207430002038
:103D70000044004000140140722F00202DE9F84358
:103D800004460D4690461E4694F83900202802D07D
:103D90000220BDE8F883D5B1B8F1000F17D094F830
:103DA0003800012815D0012084F838004FF00009B0
:103DB000C4F83C90212084F83900FDF763FD0746E4
:103DC000A4F82480A4F8268084F838902DE00120FF
:103DD000DFE70220DDE7E08C401EE084A068B0F55C
:103DE000805F09D03B46002280212046009602F0E9
:103DF000B2F9B0B10320CCE73B4600228021204637
:103E0000009602F0A8F908B10320C2E728882168CB
:103E1000C0F308004860206908B16D1C05E0AD1CC6
:103E200003E0216815F8010B4860E08C0028D2D12E
:103E30003B46002240212046009602F08CF908B152
:103E40000320A6E7202084F839000020A1E770476E
:103E5000FEE701684A69D24352050FD46FF48062CD
:103E60004A61002140F8301F2022427381730269A9
:103E700042F0040202610173012070470020704784
:103E80002DE9F84F04468B4692461D46E06A2168AC
:103E90000A6842F480620A60082808D0012806D027
:103EA00010F5803F03D0206B112806D00AE020686F
:103EB000016841F48071016004E02068016841F408
:103EC000807101604FF001185346002241462046A0
:103ED000009500F0DEF84FF4007738B120680068F4
:103EE000C00500D527640320BDE8F88F2069DFF8FE
:103EF000A090B0F5804F10D021680BF44076F020F0
:103F000040EAD61008612B46524609F106012046C8
:103F100000F0FCF840B10120E6E721680BF0FF005B
:103F200040F00100086128E021680BF0FF00086103
:103F30002B4652464946204600F0E8F808B10120D9
:103F4000D2E72068416981690091016841F480717C
:103F500001605346002241462046009500F099F842
:103F600030B120680068C00500D527640320BBE796
:103F70002168F12040EAD61008612B465246494696
:103F8000204600F0C3F808B10120ADE70020ABE700
:103F900002000100F8B504460D4617461E46E06AC9
:103FA000082808D0012806D010F5803F03D0206BE8
:103FB000122806D00AE02068016841F4807101608F
:103FC00004E02068016841F4807101603B460022F2
:103FD0004FF001112046009600F05BF840B12068D8
:103FE0000068C00502D54FF4007020640320F8BDBE
:103FF0002069B0F5804F0FD005F44070F02141EA00
:10400000D0102168086133463A460D49204600F039
:104010007DF830B10120F8BD216805F0FE0008618F
:1040200002E02168E8B20861054933463A46891F33
:10403000204600F06BF808B10120F8BD0020F8BD63
:104040000800010070B504460D4616460DE02046F6
:10405000FFF7FFFE08B1012070BD681C05D0FDF719
:1040600011FC801BA84207D835B120684069C043C5
:104070004007ECD4002070BD002044F8300F202110
:104080006173A073216941F0200121612073012037
:1040900070BD2DE9F0470446DDF820900E469046AD
:1040A0001D46C6F3074708E0681C06D0FDF7EAFB8B
:1040B000A0EB0900A8420FD875B1012F19D02068D4
:1040C000806926EA00000004000C1DD00020404555
:1040D000EAD00020BDE8F087002044F8300F20210E
:1040E0006173A073216941F02001216120730120D7
:1040F000F0E72068406926EA00000004000C01D0C7
:104100000020E4E70120E2E70120E0E72DE9F047A5
:1041100004460E46154698464FF000094FF0200A17
:10412000C6F3074725E020684069C043400517D41F
:104130002068016841F40071016021686FF48060BB
:104140004861C4F8309084F83DA084F83E90206C1B
:1041500040F00400206484F83C900120BDE8F08722
:10416000681C06D0FDF78EFBA0EB0800A8420BD818
:1041700055B1012F16D02068806926EA000000049E
:10418000000CD0D10020E9E7C4F8309084F83DA0BD
:1041900084F83E90206C40F02000206484F83C902D
:1041A0000120DBE72068406926EA00000004000CDB
:1041B000E8D0B8E72DE9F04104460D461646002741
:1041C0004FF0200819E04069C043C0060FD42168B1
:1041D0006FF010004861276384F83D8084F83E70DA
:1041E000206C206484F83C700120BDE8F081FDF76C
:1041F00049FB801BA84207D835B120684169C943F3
:104200004906E0D40020F0E744F8307F84F80D80C0
:10421000A773206940F02000206127730120E4E7A4
:1042200070B504460D4616460DE02046FFF711FE18
:1042300008B1012070BD681C05D0FDF723FB801B71
:10424000A84207D835B120684069C0430006ECD4C5
:10425000002070BD002044F8300F20216173A0734E
:10426000216941F0200121612073012070BD00000F
:1042700010B50C48012202700021816042708270EA
:10428000C1700171C1800020074B4FF4FA7403F52F
:104290007A7223F8101022F81010401CA042F8D3B4
:1042A00010BD0000A8010020A2310020F0B5314B64
:1042B000197801295DD130490978002959D19968C7
:1042C000491C99609A785A70987001272B4E0025E6
:1042D0004FF4FA74012A00D108B1CAB13BE0D960A9
:1042E000D87890B11869814203D2C2435018D8617E
:1042F00001E0081AD861D8889A8B26F81020401C53
:1043000080B2D880A04200D3DC80DF701D7122E033
:10431000012820D11961D868814203D2C2435018C4
:10432000986101E0081A9861DFF854C0D8881A8BA8
:104330002CF81020401C80B2D880A04200D9DC802C
:10434000C843A04203D201F2F510586102E001F522
:10435000FA7058611F71187901280AD15869814291
:1043600007D91D70D88826F81040401CD880DD7011
:104370001D71F0BDA8010020CC010020A231002059
:104380008A3500202DE9F04FDDF824800027002435
:1043900000254FF6FF7C11E031F8156006EB86062C
:1043A0000CEA860621F8156030F8156006EB8606E3
:1043B0000CEA860620F815606D1CADB29542EBD371
:1043C00000254FF4C8794FF0FF0C56E031F8156026
:1043D000A6F5805AAAF1680ACA4512D86E1C30F8B0
:1043E0001660A6F58056683E4E4504D84C261E55EC
:1043F000641CE4B23FE0012703F804C0641CE4B28B
:1044000039E0A6F5D776DC2E35D86E1C41F2883A15
:1044100030F81660A6F59856883E564504D85326BF
:104420001E55641CE4B226E005F110061FFA86FA58
:104430001BE06E1C30F81660A6F2AA5BBBF5AF7FDE
:1044400006D81E5D4FF0010B0BEB46061E550AE029
:10445000A6F5D776DC2E03D81E5D76001E5502E049
:10446000012703F804C0AD1CADB25545E1D3AD1E24
:10447000ADB2641CE4B2AD1CADB29542A6D388F8CF
:1044800000403846BDE8F08F2DE9F04F8146002509
:104490000020002441F2301E4FF4AF784FF4077A29
:1044A00040F25D175FE066071FD0E643760731D024
:1044B000002619F804C0C6F1070B2CFA0BFC5FEAC2
:1044C000CC7C3AD022F815A06D1CADB2454501D385
:1044D0003D46012040F2546C22F815C06D1CADB26F
:1044E00045453AD33D46012037E019F804604C2E8B
:1044F00037D122F815E06D1CADB2454501D33D46DC
:10450000012022F815E06D1CADB2454529D33D468A
:10451000012026E022F815A06D1CADB2454501D35F
:104520003D46012041F2644622F815606D1CADB293
:10453000454516D33D46012013E022F815A06D1C19
:10454000ADB2454501D33D46012022F815A06D1CB2
:10455000ADB2454501D33D460120761CF6B2082E8A
:10456000A7D3641CE4B28C429DD31D80BDE8F08FBC
:10457000024800210170416041807047CC01002059
:1045800070B5234C2078012841D16088214AC107A9
:104590004FF0000519D0616881B3491C616032F8A1
:1045A0001000884207D200211B48FFF71DF96088E0
:1045B000401C60806560194960880988884226D956
:1045C0002570BDE87040FFF7D3BF616871B1491C29
:1045D000616032F810008842EDD200210E48FFF7EA
:1045E00003F96088401C60806560E4E700210A48A8
:1045F000FFF7DEF86068401C6060DCE7FFE7002141
:104600000548FFF7F1F86068401C6060D3E770BDB3
:10461000CC010020A4390020F42C0020CA01002085
:104620007FB5002100910191029103911948184A28
:1046300002604FF4403242608160012404610176DF
:1046400080F82010C162144A8262C1600225C561EF
:1046500080F830404461FCF779FD08B1FCF7E4FBD9
:10466000009401940720029069460A48FCF720FC58
:1046700008B1FCF7D9FB1120009001956946054867
:10468000FCF716FC002801D0FCF7CEFB7FBD000034
:1046900000200140542A00200100000F08B51148F5
:1046A000016841F480010160006800F4800000901E
:1046B000002205213820FDF747FC3820FDF736FCA5
:1046C000002204213B20FDF73FFC3B20FDF72EFCA0
:1046D000002204214520FDF737FCBDE808404520B5
:1046E000FDF724BC303802402DE9F04186B014219A
:1046F00001A8FBF7B5FD00242648016841F08001C0
:104700000160016801F080010091016841F0010140
:104710000160016801F001010091016841F00401AC
:104720000160016801F004010091016841F0080195
:104730000160016801F008010091016841F0020187
:104740000160006800F002000090DFF84C804FF438
:10475000A076002231464046FDF78CF820270197CD
:1047600002940125039501A94046FCF7AFFF01968D
:1047700002950394049401A94046FCF7A7FF019712
:104780000294039501A90548FCF7A0FF06B0BDE817
:10479000F081000030380240000002400004024076
:1047A00010B50D480B4901600C4941600021816042
:1047B000C1604FF48042026141618161C161016267
:1047C000FDF766F8002803D0BDE81040FCF72CBBCD
:1047D00010BD000000540040FC2A0020A08601000B
:1047E00000B587B0142102A8FBF73AFD0021019122
:1047F0000A48094A026041607F228260FF22C2604B
:10480000016141618161FDF7AFFF002801D0FCF734
:104810000BFB07B000BD000000280040502B00201B
:1048200010B50E480C490160002141608160C160F3
:10483000016141618161FEF7B3FA08B1FCF7F4FA56
:104840004FF400610548FEF713F8002803D0BDE8D7
:104850001040FCF7E9BA10BD002C0140702B00207D
:1048600010B50B480949016040F21F314160002139
:1048700081606322C26001618161FEF74DFD002805
:1048800003D0BDE81040FCF7CFBA10BD0044014092
:10489000342D002010B586B00024029403940494B3
:1048A00005940094019413484FF0804101604F211A
:1048B000416084601321C16004618461FEF72CFDB6
:1048C00008B1FCF7B1FA4FF48050029002A90948F0
:1048D000FEF791FD08B1FCF7A7FA00940194694630
:1048E0000448FEF7DBFC002801D0FCF79DFA06B077
:1048F00010BD0000B42C002010B58EB000240A9426
:104900000B940C940D94089409941C2101A8FBF7B6
:10491000A7FC1E481C4901604F2141608460192199
:10492000C16004618461FEF7F7FC08B1FCF77CFA12
:104930004FF480500A900AA91448FEF75CFD08B1B4
:10494000FCF772FA1148FEF715FF08B1FCF76CFA94
:104950000894099408A90D48FEF7A0FC08B1FCF7DB
:1049600063FA6020019009200290039405940022CC
:1049700001A90648FEF791FE08B1FCF755FA034875
:10498000FEF762FE0EB010BD000C0040F42C0020BB
:1049900010B50C480A4901604FF4165141600021DE
:1049A0008160C16001610C2242618161C161FFF7D8
:1049B00077F8002803D0BDE81040FCF735BA10BDE9
:1049C000001001407430002010B50C480A49016005
:1049D0004FF41651416000218160C16001610C22D9
:1049E00042618161C161FFF75BF8002803D0BDE837
:1049F0001040FCF719BA10BD00440040B43000204C
:104A000010B50C480A4901604FF4E13141600021C2
:104A10008160C16001610C2242618161C161FFF767
:104A20003FF8002803D0BDE81040FCF7FDB910BDE9
:104A300000140140F4300020FEE77047704700008A
:104A40000248416D02A001F001BC0000702B002063
:104A50005344204361726420426C6F636B204E7537
:104A60006D6265723A25640D0A0000000248816D8E
:104A700002A001F0EBBB0000702B00205344204348
:104A800061726420426C6F636B2053697A653A25CA
:104A9000640D0A001FB51D49486F8DF80000020A19
:104AA0008DF80120020C8DF80220000E8DF8030015
:104AB000886F8DF80400020A8DF80520020C8DF82D
:104AC0000620000E8DF80700C86F8DF80800020A56
:104AD0008DF80920020C8DF80A20000E8DF80B00CD
:104AE000D1F880008DF80C00010A8DF80D10010C32
:104AF0008DF80E10000E8DF80F0005A001F0A6FB3A
:104B00001021684601F06CFB1FBD0000702B0020D7
:104B100053442043617264204349443A000000003A
:104B20000248C16C02A001F091BB0000702B002074
:104B30005344204361726420436C6173733A25646B
:104B40000D0A00000248C16D02A001F07FBB000009
:104B5000702B002053442043617264206C6F67699E
:104B600063616C20426C6F636B204E756D62657281
:104B70003A25640D0A0000000248016E02A001F00F
:104B800065BB0000702B00205344204361726420F9
:104B90006C6F676963616C20426C6F636B20536953
:104BA0007A653A25640D0A000348B0F8500081B2D6
:104BB00002A001F04BBB0000702B002053442043A7
:104BC000617264205243413A25640D0A00000000DE
:104BD00010B50448FDF7EAFF0146BDE8104002A009
:104BE00001F034BB702B00205344204361726420D9
:104BF00053746174653A25640D0A00000748406CDF
:104C0000002804D0012805D005A001F01FBB0AA090
:104C100001F01CBB0EA001F019BB0000702B00209E
:104C20005344204361726420547970653A20756E54
:104C30006B6E776F6E0D0A005344204361726420DF
:104C4000547970653A20534453430D0A0000000024
:104C50005344204361726420547970653A20534470
:104C600048432F534458430D0A0000000748806C06
:104C7000002804D0012805D005A001F0E7BA0BA058
:104C800001F0E4BA0FA001F0E1BA0000702B00209F
:104C9000534420436172642056657273696F6E3AA3
:104CA00020756E6B6E776F6E0D0A000053442043C3
:104CB0006172642056657273696F6E3A2056315F77
:104CC000580D0A0053442043617264205665727384
:104CD000696F6E3A2056325F580D0A00024890F80C
:104CE000341002A001F0B2BA702B00205344494F97
:104CF0002053746174653A25640D0A00010901EBC3
:104D00008101490000F00F000844C0B2704770B53F
:104D100005462868C168490613D44FF0FF31C160C9
:104D2000FCF7B0FD04464FF47A7606E0FCF7AAFDE6
:104D3000001BB04201D9032070BD2868C06840063E
:104D4000F4D5002070BD0A6842624A688262D1E9E7
:104D500002231A43D1E904310B431A43C16A21F0FB
:104D6000F7011143C162002070470069C0B270476B
:104D7000006800F003007047084440697047000075
:104D80000148FDF723BF0000702B00200FB4DDE9C0
:104D900001121143DDE903231A431143059A11431C
:104DA000069A1143426847F6FF639A430A434260FA
:104DB000002004B0704710B5032101600220FCF709
:104DC00073FC002010BDD0F8800070470A68826034
:104DD000D1E901231A43D1E903310B431A43C168D6
:104DE0006FF30B011143C160002070470968C0F8E0
:104DF00080100020704710B586B00446019137211D
:104E0000029140210391002104914FF480610591AA
:104E100001A92046FFF7DAFF41F288323721204608
:104E200000F0E8F906B010BD10B586B004460A4A95
:104E30001143019129210291402103910021049104
:104E4000510D059101A92046FFF7C0FF204600F053
:104E50008DFA06B010BD00000000108010B586B0BD
:104E600004460191102102914021039100210491F7
:104E70004FF48061059101A92046FFF7A7FF41F299
:104E800088321021204600F0B5F906B010BD10B5EB
:104E900086B0044601910621029140210391002130
:104EA00004914FF48061059101A92046FFF78EFF20
:104EB00041F288320621204600F09CF906B010BD70
:104EC00010B586B0044600210191262202924022AC
:104ED000039204911101059101A92046FFF776FF85
:104EE0004FF218622621204600F084F906B010BD6A
:104EF00010B586B0044600210191029103910491FE
:104F00004FF48061059101A92046FFF75FFF20461D
:104F100000F058F906B010BD10B586B004464FF445
:104F2000D571019108210291402103910021049142
:104F30004FF48061059101A92046FFF747FF204605
:104F400000F07CFA06B010BD10B586B004460191A1
:104F50001221029140210391002104914FF48061BC
:104F6000059101A92046FFF731FF41F28832122155
:104F7000204600F03FF906B010BD10B586B00446DB
:104F800001911121029140210391002104914FF4DC
:104F90008061059101A92046FFF718FF41F2883290
:104FA0001121204600F026F906B010BD10B586B0DC
:104FB0000446019121210291402103910021049195
:104FC0004FF48061059101A92046FFF7FFFE41F2F1
:104FD00088322121204600F00DF906B010BD10B531
:104FE00086B00446019120210291402103910021C5
:104FF00004914FF48061059101A92046FFF7E6FE78
:1050000041F288322021204600F0F4F806B010BDAD
:1050100010B586B004460192072102914021039108
:10502000002104914FF48060059001A92046FFF70C
:10503000CDFE41F288320721204600F0DBF806B0B1
:1050400010BD10B586B004460021019102220292E3
:10505000C022039204914FF48061059101A920467A
:10506000FFF7B4FE204600F057F906B010BD10B5AA
:1050700086B00446019109210291C02103910021CB
:1050800004914FF48061059101A92046FFF79EFE2F
:10509000204600F041F906B010BD10B586B00446B8
:1050A00000210191332202924022039204911101C6
:1050B000059101A92046FFF789FE41F2883233218C
:1050C000204600F097F806B010BD10B586B0044633
:1050D00001910D21029140210391002104914FF48F
:1050E0008061059101A92046FFF770FE41F28832E8
:1050F0000D21204600F07EF806B010BD70B586B0D8
:1051000006460D4600230193032402944024039491
:1051100004932301059301A93046FFF757FE2A4661
:105120000321304600F044F906B070BD10B586B0DA
:105130000446002101910C22029240220392049124
:105140001101059101A92046FFF740FE034A0C21F9
:10515000204600F04FF806B010BD000000E1F50554
:1051600010B586B0044601911921029140210391A6
:10517000002104914FF48061059101A92046FFF7B9
:1051800025FE41F288321921204600F033F806B09E
:1051900010BD10B586B0044601911821029140213E
:1051A0000391002104914FF48061059101A92046EB
:1051B000FFF70CFE41F288321821204600F01AF861
:1051C00006B010BD0A494FF4FA520968B1FBF2F17A
:1051D00041F288325143491E4A1C06D0426B1206E6
:1051E000F9D5C5218163002070474FF0004070471A
:1051F0007801002010B5034645484FF4FA54006882
:10520000B0FBF4F45443641E601C0BD0586B10F0D8
:10521000450FF8D00005F6D4586B400705D504209B
:10522000986310BD4FF0004010BD586BC00702D00E
:105230000120986310BDC52098631846FFF795FDBF
:10524000884201D0012010BD00211846FFF794FDCF
:105250003049084201D1002010BD002802DA4FF089
:10526000007010BD410001D5402010BD810001D566
:10527000802010BDC10002D54FF4807010BD010127
:1052800002D54FF4007010BD410102D54FF480608B
:1052900010BDC10102D54FF4006010BD010202D55E
:1052A0004FF4805010BD410202D54FF4005010BDA4
:1052B000810202D54FF4804010BDC10202D54FF4E7
:1052C000004010BD410302D54FF4003010BD8103F2
:1052D00002D54FF4802010BDC10302D54FF4002049
:1052E00010BD010402D54FF4801010BD410402D559
:1052F0004FF4001010BD810402D54FF4800010BDA2
:10530000000702D54FF4000010BD4FF4803010BDEF
:105310007801002008E0FFFD13494FF4FA520968B4
:10532000B1FBF2F241F288314A43521E511C0CD0BB
:10533000416B11F0450FF8D00905F6D4416B4907D0
:1053400006D504218163042070474FF00040704768
:10535000416BC90703D00121816301207047C5213A
:105360008163002070470000780100200F494FF44E
:10537000FA520968B1FBF2F241F288314A43521EF7
:10538000511C0CD0416B11F0450FF8D00905F6D433
:10539000416B490706D504218163042070474FF013
:1053A00000407047C52181630020704778010020CC
:1053B00030B5034620484FF4FA540068B0FBF4F4CB
:1053C00041F288304443641E601C0BD0586B10F0CF
:1053D000450FF8D00005F6D4586B400705D50420DA
:1053E000986330BD4FF0004030BD586BC00702D00D
:1053F0000120986330BD1846FFF7B7FC884201D002
:10540000012030BDC520986300211846FFF7B4FC89
:1054100010F4604F04D0410406D54FF4005030BD65
:10542000000C1080002030BD000402D54FF48050E5
:1054300030BD4FF4803030BD7801002014494FF466
:10544000FA520968B1FBF2F241F288314A43521E26
:10545000511C0CD0416B11F0450FF8D00905F6D462
:10546000416B490706D504218163042070474FF042
:1054700000407047416BC90703D0012181630120BF
:105480007047416B490601D5402181630020704778
:105490007801002010B5846BFBF77AFF022828D032
:1054A000206C406DE16B496D012801D001291DD1AF
:1054B0002168104888632068C16B21F49D71C16325
:1054C000A06B40F08040A0632046FDF76FFB0628EC
:1054D00001D0052805D12068FFF728FEA16B0843FD
:1054E000A063012084F83400002020632046FDF7EB
:1054F00091FA10BDFF05400010B5846B206B822827
:1055000009D12068FFF712FE28B1A16B0143A16306
:105510002046FDF77FFA2068C16A21F00801C162C8
:10552000216840F23A508863012084F8340000205A
:1055300020632046FDF7F8FD10BD10B5846B40F2E6
:105540003A50216888632046FDF730FB012184F83A
:10555000341000212163062801D0052805D12068D8
:10556000FFF7E4FDA16B0843A063A06B18B12046D0
:10557000FDF750FA10BD2046FDF778F910BD806B9D
:105580000068C16B41F48071C163704710B5846BD2
:1055900040F23A50216888632046FDF707FB01215D
:1055A00084F8341000212163062801D0052805D194
:1055B0002068FFF7BBFDA16B0843A063A06B18B187
:1055C0002046FDF727FA10BD2046FDF74FF910BD24
:1055D0002DE9F04F89B004460E46FCF753F9074613
:1055E0000025AA46CDF804A0CDF808A0082120681F
:1055F000FFF734FC00283ED1B4F8500001042068C5
:10560000FFF7F9FB002836D1401E03904FF0080841
:10561000CDF81080302005904FF00209CDF8189099
:10562000CDF81CA00120089003A92068FFF78BFB90
:105630002068FFF732FD00281DD10DF1040A40F269
:105640002A4B0CE0416B890204D5FFF7BCFB4AF8FA
:1056500025006D1CFCF716F9C01B401C0ED02068FD
:10566000416B11EA0B0FEDD02168496B090708D592
:10567000C0F83880082009B0BDE8F08F4FF0004036
:10568000F9E7416B890703D5C0F838900220F2E7AB
:10569000416B890603D5202181632020EBE740F28E
:1056A0003A51816302980299000601F47F4140EA71
:1056B0000120029901F47F0140EA1120029940EA99
:1056C0001160306001980199000601F47F4140EAC1
:1056D0000120019901F47F0140EA1120019940EA7B
:1056E000116070600020C6E710B590B0044601203C
:1056F00004902068FFF73CFB002854D0606C03281E
:1057000019D02068FFF79DFC00284AD100212068AD
:10571000FFF732FB606704212068FFF72DFBA067CD
:1057200008212068FFF728FBE0670C212068FFF7BD
:1057300023FBC4F88000606C032805D004A920680E
:10574000FFF7DCFC00282CD1606C03281CD0BDF8CE
:105750001000206501042068FFF789FC002820D193
:1057600000212068FFF708FB606604212068FFF72E
:1057700003FBA06608212068FFF7FEFAE0660C2113
:105780002068FFF7F9FA206704212068FFF7F4FA90
:10579000000DE06405A92046FDF73EF930B14FF059
:1057A000805010B010BD4FF08060FAE7B4F85000A0
:1057B000002302042068FFF72BFC0028F1D1D4E974
:1057C000051220698DE807000FCCFFF7DFFA0020F3
:1057D000E7E700002DE9F84F044600270097002670
:1057E00000252068FFF784FB002819D12068FFF707
:1057F00093FB4FF0010930B1A7642068FFF778FBF5
:1058000000280DD101E0C4F84890A06C4FF0805AF8
:10581000012807D100212068FFF7EDFA10B15046AA
:10582000BDE8F88F4FF6FF7815E000212068FFF7FC
:10583000E2FA0028F4D111492068FFF7F5FA08B11F
:105840005046EDE700212068FFF796FA0646F50F6F
:105850000098401C00900098404501D2002DE4D0F3
:105860000098404502D34FF08070D9E7700002D510
:10587000C4F8449000E067640020D1E7000010C144
:105880002DE9F0410746BC6AFD6A002D11D00026C3
:105890003868FFF798FA2070010A6170010CA17056
:1058A000000EE070241D2D1F761C082EF0D3BC6264
:1058B000FD62BDE8F08170B504460D46002D0ED0A6
:1058C000B4F8500001042068FFF7FFFB002805D161
:1058D00000212068FFF750FA2860002070BD4FF0CB
:1058E000006070BD1CB504460020009001900021AE
:1058F0002068FFF741FA800102D54FF400601CBD1B
:1059000069462046FFF764FE0028F8D10198C003DD
:105910000ED5B4F8500001042068FFF76CFA002897
:10592000EDD100212068FFF7B2FA0028E7D11CBDB5
:105930004FF080601CBD1CB5044600200090019013
:1059400000212068FFF718FA800102D54FF40060AB
:105950001CBD69462046FFF73BFE0028F8D10198A0
:1059600040030ED5B4F8500001042068FFF743FA55
:105970000028EDD102212068FFF789FA0028E7D13D
:105980001CBD4FF080601CBDF8B507463C6A7D6ABF
:10599000002D19D0002620780090617840EA01207F
:1059A0000090A17840EA01400090E178241D40EA8F
:1059B000016000902D1F69463868FFF717FA761CC2
:1059C000082EE8D33C627D62F8BD000070B5044645
:1059D0000E461546FF212046FBF793F9A178884231
:1059E00006D1FF21E01CFBF78CF96179884201D0D8
:1059F000012070BD6078217840EA012000EE100A95
:105A0000DFED0F0ADFED0F1AB8EE400A80EE201A24
:105A10009FED0D0A01EE210A86ED000A2079E1785A
:105A200040EA012000EE100AB8EE400A80EE201A8B
:105A30009FED060A21EE000A85ED000A002070BDE8
:105A400000FF7F4700002F43000034C20000C8421F
:105A500042F2202000F01CB838B504464FF46040F4
:105A600000F016F84FF6FF710091062322468921B7
:105A70000148FBF7D9FF38BDFC2A002010B543F2DE
:105A8000A20000F005F8BDE810401420FBF70CBEA2
:105A90001CB5010A8DF804108DF805004FF6FF7053
:105AA0000090022301AA88210148FCF703F91CBDDC
:105AB000FC2A00207047FCF7DDB9000030B597B034
:105AC00030210BA8FAF7CCFB142106A8FAF7C8FB83
:105AD000142101A8FAF7C4FB00252348016841F00E
